{"abi":[{"type":"function","name":"balances","inputs":[{"name":"","type":"address","internalType":"address"}],"outputs":[{"name":"","type":"uint256","internalType":"uint256"}],"stateMutability":"view"},{"type":"function","name":"contractInfo","inputs":[],"outputs":[{"name":"","type":"string","internalType":"string"}],"stateMutability":"pure"},{"type":"function","name":"deposit","inputs":[],"outputs":[],"stateMutability":"payable"},{"type":"function","name":"emergencyStop","inputs":[],"outputs":[],"stateMutability":"nonpayable"},{"type":"function","name":"getBalance","inputs":[],"outputs":[{"name":"","type":"uint256","internalType":"uint256"}],"stateMutability":"view"},{"type":"function","name":"getTotalBalance","inputs":[],"outputs":[{"name":"","type":"uint256","internalType":"uint256"}],"stateMutability":"view"},{"type":"function","name":"withdraw","inputs":[{"name":"amount","type":"uint256","internalType":"uint256"}],"outputs":[],"stateMutability":"nonpayable"}],"bytecode":{"object":"0x6080604052348015600e575f5ffd5b5061089a8061001c5f395ff3fe60806040526004361061006f575f3560e01c806327e235e31161004d57806327e235e3146100f15780632e1a7d4d1461012d57806363a599a414610155578063d0e30db01461016b5761006f565b806312065fe01461007357806312b583491461009d57806315c43aaf146100c7575b5f5ffd5b34801561007e575f5ffd5b50610087610175565b604051610094919061047a565b60405180910390f35b3480156100a8575f5ffd5b506100b16101c7565b6040516100be919061047a565b60405180910390f35b3480156100d2575f5ffd5b506100db6101dd565b6040516100e89190610503565b60405180910390f35b3480156100fc575f5ffd5b5061011760048036038101906101129190610581565b61020c565b604051610124919061047a565b60405180910390f35b348015610138575f5ffd5b50610153600480360381019061014e91906105d6565b610220565b005b348015610160575f5ffd5b506101696103ac565b005b6101736103ff565b005b5f600161018557610184610601565b5b5f5f3373ffffffffffffffffffffffffffffffffffffffff1673ffffffffffffffffffffffffffffffffffffffff1681526020019081526020015f2054905090565b5f60016101d7576101d6610601565b5b47905090565b606060016101ee576101ed610601565b5b6040518060600160405280602a815260200161083b602a9139905090565b5f602052805f5260405f205f915090505481565b600161022f5761022e610601565b5b805f5f3373ffffffffffffffffffffffffffffffffffffffff1673ffffffffffffffffffffffffffffffffffffffff1681526020019081526020015f205410156102ae576040517f08c379a00000000000000000000000000000000000000000000000000000000081526004016102a590610678565b60405180910390fd5b5f3373ffffffffffffffffffffffffffffffffffffffff16826040516102d3906106c3565b5f6040518083038185875af1925050503d805f811461030d576040519150601f19603f3d011682016040523d82523d5f602084013e610312565b606091505b5050905080610356576040517f08c379a000000000000000000000000000000000000000000000000000000000815260040161034d90610721565b60405180910390fd5b815f5f3373ffffffffffffffffffffffffffffffffffffffff1673ffffffffffffffffffffffffffffffffffffffff1681526020019081526020015f205f8282546103a1919061076c565b925050819055505050565b60016103bb576103ba610601565b5b5f47146103fd576040517f08c379a00000000000000000000000000000000000000000000000000000000081526004016103f4906107e9565b60405180910390fd5b565b600161040e5761040d610601565b5b345f5f3373ffffffffffffffffffffffffffffffffffffffff1673ffffffffffffffffffffffffffffffffffffffff1681526020019081526020015f205f8282546104599190610807565b92505081905550565b5f819050919050565b61047481610462565b82525050565b5f60208201905061048d5f83018461046b565b92915050565b5f81519050919050565b5f82825260208201905092915050565b8281835e5f83830152505050565b5f601f19601f8301169050919050565b5f6104d582610493565b6104df818561049d565b93506104ef8185602086016104ad565b6104f8816104bb565b840191505092915050565b5f6020820190508181035f83015261051b81846104cb565b905092915050565b5f5ffd5b5f73ffffffffffffffffffffffffffffffffffffffff82169050919050565b5f61055082610527565b9050919050565b61056081610546565b811461056a575f5ffd5b50565b5f8135905061057b81610557565b92915050565b5f6020828403121561059657610595610523565b5b5f6105a38482850161056d565b91505092915050565b6105b581610462565b81146105bf575f5ffd5b50565b5f813590506105d0816105ac565b92915050565b5f602082840312156105eb576105ea610523565b5b5f6105f8848285016105c2565b91505092915050565b7f4e487b71000000000000000000000000000000000000000000000000000000005f52600160045260245ffd5b7f496e73756666696369656e742062616c616e63650000000000000000000000005f82015250565b5f61066260148361049d565b915061066d8261062e565b602082019050919050565b5f6020820190508181035f83015261068f81610656565b9050919050565b5f81905092915050565b50565b5f6106ae5f83610696565b91506106b9826106a0565b5f82019050919050565b5f6106cd826106a3565b9150819050919050565b7f5472616e73666572206661696c656400000000000000000000000000000000005f82015250565b5f61070b600f8361049d565b9150610716826106d7565b602082019050919050565b5f6020820190508181035f830152610738816106ff565b9050919050565b7f4e487b71000000000000000000000000000000000000000000000000000000005f52601160045260245ffd5b5f61077682610462565b915061078183610462565b92508282039050818111156107995761079861073f565b5b92915050565b7f436f6e7472616374206e6f7420656d70747900000000000000000000000000005f82015250565b5f6107d360128361049d565b91506107de8261079f565b602082019050919050565b5f6020820190508181035f830152610800816107c7565b9050919050565b5f61081182610462565b915061081c83610462565b92508282019050808211156108345761083361073f565b5b9291505056fe56756c6e657261626c652042616e6b20436f6e7472616374202d205265656e7472616e6379205269736ba2646970667358221220b473b4699070462966b810c9c3eff618e31a31f79b5223204ff68d6ed2d595d464736f6c634300081e0033","linkReferences":{}},"methodIdentifiers":{"balances(address)":"27e235e3","contractInfo()":"15c43aaf","deposit()":"d0e30db0","emergencyStop()":"63a599a4","getBalance()":"12065fe0","getTotalBalance()":"12b58349","withdraw(uint256)":"2e1a7d4d"},"id":0}